{
  "_format": "hh-sol-artifact-1",
  "contractName": "Splitwise",
  "sourceName": "contracts/mycontract.sol",
  "abi": [
    {
      "inputs": [],
      "stateMutability": "nonpayable",
      "type": "constructor"
    },
    {
      "inputs": [
        {
          "internalType": "address",
          "name": "iAddress",
          "type": "address"
        },
        {
          "internalType": "address",
          "name": "uAddress",
          "type": "address"
        },
        {
          "internalType": "uint32",
          "name": "amount",
          "type": "uint32"
        }
      ],
      "name": "add_IOU",
      "outputs": [],
      "stateMutability": "nonpayable",
      "type": "function"
    },
    {
      "inputs": [
        {
          "internalType": "address",
          "name": "input",
          "type": "address"
        }
      ],
      "name": "getAllOwingData",
      "outputs": [
        {
          "components": [
            {
              "internalType": "uint32",
              "name": "amount",
              "type": "uint32"
            },
            {
              "internalType": "address",
              "name": "owingAddress",
              "type": "address"
            }
          ],
          "internalType": "struct Splitwise.Owing[]",
          "name": "",
          "type": "tuple[]"
        }
      ],
      "stateMutability": "view",
      "type": "function"
    },
    {
      "inputs": [],
      "name": "getParticipant",
      "outputs": [
        {
          "internalType": "address[]",
          "name": "",
          "type": "address[]"
        }
      ],
      "stateMutability": "view",
      "type": "function"
    },
    {
      "inputs": [
        {
          "internalType": "address",
          "name": "debtor",
          "type": "address"
        },
        {
          "internalType": "address",
          "name": "creditor",
          "type": "address"
        }
      ],
      "name": "lookup",
      "outputs": [
        {
          "internalType": "uint32",
          "name": "ret",
          "type": "uint32"
        }
      ],
      "stateMutability": "view",
      "type": "function"
    },
    {
      "inputs": [],
      "name": "owner",
      "outputs": [
        {
          "internalType": "address",
          "name": "",
          "type": "address"
        }
      ],
      "stateMutability": "view",
      "type": "function"
    },
    {
      "inputs": [
        {
          "internalType": "address",
          "name": "",
          "type": "address"
        }
      ],
      "name": "participant",
      "outputs": [
        {
          "internalType": "bool",
          "name": "",
          "type": "bool"
        }
      ],
      "stateMutability": "view",
      "type": "function"
    },
    {
      "inputs": [
        {
          "internalType": "uint256",
          "name": "",
          "type": "uint256"
        }
      ],
      "name": "participantList",
      "outputs": [
        {
          "internalType": "address",
          "name": "",
          "type": "address"
        }
      ],
      "stateMutability": "view",
      "type": "function"
    }
  ],
  "bytecode": "0x608060405234801561001057600080fd5b50336000806101000a81548173ffffffffffffffffffffffffffffffffffffffff021916908373ffffffffffffffffffffffffffffffffffffffff1602179055506111e9806100606000396000f3fe608060405234801561001057600080fd5b506004361061007d5760003560e01c8063713584a61161005b578063713584a6146101005780638da5cb5b14610130578063dcba2f9f1461014e578063fd0b94ca1461016a5761007d565b80630e6fdaa11461008257806314b87862146100b25780632605b3c7146100d0575b600080fd5b61009c60048036038101906100979190610c20565b61019a565b6040516100a99190610c8e565b60405180910390f35b6100ba6101d9565b6040516100c79190610d67565b60405180910390f35b6100ea60048036038101906100e59190610db5565b610267565b6040516100f79190610dfd565b60405180910390f35b61011a60048036038101906101159190610e18565b610287565b6040516101279190610e77565b60405180910390f35b61013861033a565b6040516101459190610c8e565b60405180910390f35b61016860048036038101906101639190610ebe565b61035e565b005b610184600480360381019061017f9190610db5565b610989565b6040516101919190610ffe565b60405180910390f35b600181815481106101aa57600080fd5b906000526020600020016000915054906101000a900473ffffffffffffffffffffffffffffffffffffffff1681565b6060600180548060200260200160405190810160405280929190818152602001828054801561025d57602002820191906000526020600020905b8160009054906101000a900473ffffffffffffffffffffffffffffffffffffffff1673ffffffffffffffffffffffffffffffffffffffff1681526020019060010190808311610213575b5050505050905090565b60026020528060005260406000206000915054906101000a900460ff1681565b60008061029384610989565b905060005b815181101561032d578373ffffffffffffffffffffffffffffffffffffffff168282815181106102cb576102ca611020565b5b60200260200101516020015173ffffffffffffffffffffffffffffffffffffffff160361031a5781818151811061030557610304611020565b5b60200260200101516000015192505050610334565b80806103259061107e565b915050610298565b5060009150505b92915050565b60008054906101000a900473ffffffffffffffffffffffffffffffffffffffff1681565b8173ffffffffffffffffffffffffffffffffffffffff168373ffffffffffffffffffffffffffffffffffffffff16036103cc576040517f08c379a00000000000000000000000000000000000000000000000000000000081526004016103c390611123565b60405180910390fd5b6103d583610a9f565b6103de82610a9f565b60005b600360008473ffffffffffffffffffffffffffffffffffffffff1673ffffffffffffffffffffffffffffffffffffffff168152602001908152602001600020805490508110156106f4576000600360008573ffffffffffffffffffffffffffffffffffffffff1673ffffffffffffffffffffffffffffffffffffffff168152602001908152602001600020828154811061047e5761047d611020565b5b9060005260206000200190508473ffffffffffffffffffffffffffffffffffffffff168160000160049054906101000a900473ffffffffffffffffffffffffffffffffffffffff1673ffffffffffffffffffffffffffffffffffffffff16036106e0578263ffffffff168160000160009054906101000a900463ffffffff1663ffffffff16111561055157828160000160008282829054906101000a900463ffffffff1661052c9190611143565b92506101000a81548163ffffffff021916908363ffffffff1602179055505050610984565b8263ffffffff168160000160009054906101000a900463ffffffff1663ffffffff16101561063c57600360008573ffffffffffffffffffffffffffffffffffffffff1673ffffffffffffffffffffffffffffffffffffffff16815260200190815260200160002082815481106105ca576105c9611020565b5b90600052602060002001600080820160006101000a81549063ffffffff02191690556000820160046101000a81549073ffffffffffffffffffffffffffffffffffffffff021916905550508060000160009054906101000a900463ffffffff16836106359190611143565b92506106df565b600360008573ffffffffffffffffffffffffffffffffffffffff1673ffffffffffffffffffffffffffffffffffffffff168152602001908152602001600020828154811061068d5761068c611020565b5b90600052602060002001600080820160006101000a81549063ffffffff02191690556000820160046101000a81549073ffffffffffffffffffffffffffffffffffffffff021916905550505050610984565b5b5080806106ec9061107e565b9150506103e1565b5060005b600360008573ffffffffffffffffffffffffffffffffffffffff1673ffffffffffffffffffffffffffffffffffffffff16815260200190815260200160002080549050811015610854576000600360008673ffffffffffffffffffffffffffffffffffffffff1673ffffffffffffffffffffffffffffffffffffffff168152602001908152602001600020828154811061079557610794611020565b5b9060005260206000200190508373ffffffffffffffffffffffffffffffffffffffff168160000160049054906101000a900473ffffffffffffffffffffffffffffffffffffffff1673ffffffffffffffffffffffffffffffffffffffff160361084057828160000160008282829054906101000a900463ffffffff1661081b919061117b565b92506101000a81548163ffffffff021916908363ffffffff1602179055505050610984565b50808061084c9061107e565b9150506106f8565b5061085d610baf565b82816020019073ffffffffffffffffffffffffffffffffffffffff16908173ffffffffffffffffffffffffffffffffffffffff168152505081816000019063ffffffff16908163ffffffff1681525050600360008573ffffffffffffffffffffffffffffffffffffffff1673ffffffffffffffffffffffffffffffffffffffff168152602001908152602001600020819080600181540180825580915050600190039060005260206000200160009091909190915060008201518160000160006101000a81548163ffffffff021916908363ffffffff16021790555060208201518160000160046101000a81548173ffffffffffffffffffffffffffffffffffffffff021916908373ffffffffffffffffffffffffffffffffffffffff1602179055505050505b505050565b6060600360008373ffffffffffffffffffffffffffffffffffffffff1673ffffffffffffffffffffffffffffffffffffffff168152602001908152602001600020805480602002602001604051908101604052809291908181526020016000905b82821015610a94578382906000526020600020016040518060400160405290816000820160009054906101000a900463ffffffff1663ffffffff1663ffffffff1681526020016000820160049054906101000a900473ffffffffffffffffffffffffffffffffffffffff1673ffffffffffffffffffffffffffffffffffffffff1673ffffffffffffffffffffffffffffffffffffffff1681525050815260200190600101906109ea565b505050509050919050565b600260008273ffffffffffffffffffffffffffffffffffffffff1673ffffffffffffffffffffffffffffffffffffffff16815260200190815260200160002060009054906101000a900460ff16610bac576001600260008373ffffffffffffffffffffffffffffffffffffffff1673ffffffffffffffffffffffffffffffffffffffff16815260200190815260200160002060006101000a81548160ff0219169083151502179055506001819080600181540180825580915050600190039060005260206000200160009091909190916101000a81548173ffffffffffffffffffffffffffffffffffffffff021916908373ffffffffffffffffffffffffffffffffffffffff1602179055505b50565b6040518060400160405280600063ffffffff168152602001600073ffffffffffffffffffffffffffffffffffffffff1681525090565b600080fd5b6000819050919050565b610bfd81610bea565b8114610c0857600080fd5b50565b600081359050610c1a81610bf4565b92915050565b600060208284031215610c3657610c35610be5565b5b6000610c4484828501610c0b565b91505092915050565b600073ffffffffffffffffffffffffffffffffffffffff82169050919050565b6000610c7882610c4d565b9050919050565b610c8881610c6d565b82525050565b6000602082019050610ca36000830184610c7f565b92915050565b600081519050919050565b600082825260208201905092915050565b6000819050602082019050919050565b610cde81610c6d565b82525050565b6000610cf08383610cd5565b60208301905092915050565b6000602082019050919050565b6000610d1482610ca9565b610d1e8185610cb4565b9350610d2983610cc5565b8060005b83811015610d5a578151610d418882610ce4565b9750610d4c83610cfc565b925050600181019050610d2d565b5085935050505092915050565b60006020820190508181036000830152610d818184610d09565b905092915050565b610d9281610c6d565b8114610d9d57600080fd5b50565b600081359050610daf81610d89565b92915050565b600060208284031215610dcb57610dca610be5565b5b6000610dd984828501610da0565b91505092915050565b60008115159050919050565b610df781610de2565b82525050565b6000602082019050610e126000830184610dee565b92915050565b60008060408385031215610e2f57610e2e610be5565b5b6000610e3d85828601610da0565b9250506020610e4e85828601610da0565b9150509250929050565b600063ffffffff82169050919050565b610e7181610e58565b82525050565b6000602082019050610e8c6000830184610e68565b92915050565b610e9b81610e58565b8114610ea657600080fd5b50565b600081359050610eb881610e92565b92915050565b600080600060608486031215610ed757610ed6610be5565b5b6000610ee586828701610da0565b9350506020610ef686828701610da0565b9250506040610f0786828701610ea9565b9150509250925092565b600081519050919050565b600082825260208201905092915050565b6000819050602082019050919050565b610f4681610e58565b82525050565b604082016000820151610f626000850182610f3d565b506020820151610f756020850182610cd5565b50505050565b6000610f878383610f4c565b60408301905092915050565b6000602082019050919050565b6000610fab82610f11565b610fb58185610f1c565b9350610fc083610f2d565b8060005b83811015610ff1578151610fd88882610f7b565b9750610fe383610f93565b925050600181019050610fc4565b5085935050505092915050565b600060208201905081810360008301526110188184610fa0565b905092915050565b7f4e487b7100000000000000000000000000000000000000000000000000000000600052603260045260246000fd5b7f4e487b7100000000000000000000000000000000000000000000000000000000600052601160045260246000fd5b600061108982610bea565b91507fffffffffffffffffffffffffffffffffffffffffffffffffffffffffffffffff82036110bb576110ba61104f565b5b600182019050919050565b600082825260208201905092915050565b7f596f752063616e2774206f776520796f757273656c6621000000000000000000600082015250565b600061110d6017836110c6565b9150611118826110d7565b602082019050919050565b6000602082019050818103600083015261113c81611100565b9050919050565b600061114e82610e58565b915061115983610e58565b9250828203905063ffffffff8111156111755761117461104f565b5b92915050565b600061118682610e58565b915061119183610e58565b9250828201905063ffffffff8111156111ad576111ac61104f565b5b9291505056fea26469706673582212202ae39ac122ff2a6d87dad948e9a2fcef951580c03ed470cff645962961afa8ba64736f6c63430008110033",
  "linkReferences": {},
  "deployedLinkReferences": {}
}